{
  "abi": [
    {
      "inputs": [],
      "name": "bar",
      "outputs": [],
      "stateMutability": "nonpayable",
      "type": "function"
    }
  ],
  "bytecode": {
    "object": "0x6080604052348015600f57600080fd5b50606580601d6000396000f3fe6080604052348015600f57600080fd5b506004361060285760003560e01c8063febb0f7e14602d575b600080fd5b00fea264697066735822122018c210ba839c922bab702b35f944b7ebfba452c85a2d260643f871c3253c0c8764736f6c634300080f0033",
    "linkReferences": {}
  },
  "methodIdentifiers": {
    "bar()": "febb0f7e"
  },
  "id": 0
}