{
  "abi": [
    {
      "inputs": [],
      "name": "bar",
      "outputs": [],
      "stateMutability": "nonpayable",
      "type": "function"
    }
  ],
  "bytecode": {
    "object": "0x6080604052348015600f57600080fd5b50606580601d6000396000f3fe6080604052348015600f57600080fd5b506004361060285760003560e01c8063febb0f7e14602d575b600080fd5b00fea26469706673582212209744c794a0330c988b2ddb06eada35dc3620bd834d0e96a6a9c7a470d450a06a64736f6c634300080f0033",
    "linkReferences": {}
  },
  "methodIdentifiers": {
    "bar()": "febb0f7e"
  },
  "id": 9
}